:100000000C940E010C943F010C943F010C943F01A1
:100010000C943F010C943F010C943F010C943F0160
:100020000C943F010C943F010C943F010C943F0150
:100030000C943F010C943F010C943F010C943F0140
:100040000C943F010C943F010C943F010C943F0130
:100050000C943F010C943F010C943F010C94680BED
:100060000C943F010C94450E0C94350F0C943F01F9
:100070000C943F010C943F010C943F010C943F0100
:100080000C943F010C943F010C943F010C943F01F0
:100090000C94790E0C94740F0C943F010C943F0156
:1000A0000C943F010C943F010C943F010C943F01D0
:1000B0000C943F010C943F010C943F010C943F01C0
:1000C0000C943F010C943F010C943F010C94AD0E35
:1000D0000C94B30F0C943F010C94E10E0C94F20FAE
:1000E0000C943F0100002100240027002A002D006D
:1000F0003000330001010000040107010A01000083
:100100002200250028002B002E00310034000201BF
:100110000000050108010B0100002000230026005B
:1001200029002C002F00320000010000030106010D
:10013000090105050505070508080808020202026D
:100140000A0A080804040404010101010101010173
:100150000303030303030303040707070C0C0C0C3E
:100160000C0C0C0C02020202060606060606060627
:100170000B0B0B0B0B0B0B0B0102102020080810B4
:100180002040102040800201020108040201010207
:1001900004081020408080402010080402018004E0
:1001A000020180402010080402010804020101023B
:1001B0000408102040800102040810204080000044
:1001C000090A02080B0C0D070603040100000000D9
:1001D000000000000000000000000000000000001F
:1001E0000000000000000000000011100F000000DF
:1001F00000000000000000000000000000000000FF
:10020000000000007C3C3E5E2B3D3F2F5B5D3B2CA5
:100210002A225C000507B010871A0A0711241FBEA6
:10022000CFEFD1E2DEBFCDBF00E00CBF13E0A0E016
:10023000B2E0E6E0F7E500E00BBF02C007900D92E8
:10024000AA35B107D9F718E0AAE5B3E001C01D92BD
:10025000A93DB107E1F712E0CAE1D2E000E006C033
:1002600022970109FE010BBF0E946D2BC431D107FB
:1002700080E00807A9F70E9496110C944C2A0C9470
:100280000000FC01608381E08183878313821482F4
:100290001582168208951F93CF93DF93EC01888116
:1002A0000E94680D182F0E94B00B2F81121721F0A9
:1002B0006B837C838D839E832B813C814D815E810A
:1002C0000E945B02633371058105910518F08A81F4
:1002D00089831A831F83DF91CF911F910895FC01B9
:1002E00092818181981729F081E0992319F080E0AB
:1002F000089580E0089521E0FC018281811120E0D1
:10030000822F0895CF92EF920F938130910599F546
:100310008AE593E06091FA020E94410182E693E04F
:100320006091FB020E9441018AE693E06091FC0229
:100330000E94410182E793E06091FD020E94410129
:100340008AE793E06091FE020E94410182E893E017
:100350006091000340910103209102030091030387
:10036000E0900403C09005030E94D21689EA93E04E
:100370000E94051806C0009721F489EA93E00E94C4
:1003800018180F91EF90CF900895CF93DF93EC0161
:1003900085EF95E060E072E00E941E12C430D10546
:1003A00009F467C0C530D1059CF4C130D10509F40A
:1003B0003FC0C230D1051CF4209719F179C0C2307A
:1003C000D10509F44CC0C330D10509F071C04CC04F
:1003D000C730D10509F45CC0C830D1054CF4C53034
:1003E000D10509F44BC0C630D10509F061C04BC03E
:1003F000C830D10509F451C0C930D10509F058C041
:1004000051C08091FF0262E070E00E94880A64E6B9
:1004100070E080E090E00E94E40B8091FF0260E0D9
:1004200070E00E94880A85EF95E068E072E03EC0C7
:100430008091FF0262E070E00E94880A64E670E04A
:1004400080E090E00E94E40B8091FF0260E070E0A9
:100450000E94880A85EF95E06CE072E027C085EF86
:1004600095E060E172E022C085EF95E069E172E01D
:100470001DC085EF95E062E272E018C085EF95E05F
:1004800062E372E013C085EF95E06FE372E00EC0A7
:1004900085EF95E06BE472E009C085EF95E064E5D7
:1004A00072E004C085EF95E06FE572E00E945112A2
:1004B000DF91CF910895EF92FF920F931F93DC018C
:1004C000CB0182179307A407B50748F42095309510
:1004D00040955095280F391F4A1F5B1F08C07C01AB
:1004E0008D01E21AF30A040B150BA8019701B9015B
:1004F000CA011F910F91FF90EF900895CF92DF9264
:10050000EF92FF920F931F93DF93CF93CDB7DEB798
:10051000AA970FB6F894DEBF0FBECDBF6C018E0157
:10052000085F1F4FC801B6010E94C6137E010894E0
:10053000E11CF11CC701B8010E949C09C8010E947E
:100540001E138D819E810097B9F485EF95E064E7D5
:1005500072E00E941E1285EF95E0B6010E943E12E5
:1005600085EF95E06AE872E00E941E1285EF95E043
:10057000B7010E943E12A0C082E893E060E040E034
:100580000E94E615609197037091980382E893E0CA
:100590004AE050E00E94F91282E893E066E972E0D6
:1005A0000E941E128E01015F1F4FC801B70140E07B
:1005B00050E02CE030E00E945F1482E893E0B80144
:1005C0000E94EB11C8010E941E1382E893E066E9C5
:1005D00072E00E941E126091990370919A0382E862
:1005E00093E04AE050E00E94F91282E893E060E074
:1005F00041E00E94E61582E893E068E972E00E941B
:100600001E128E010A5E1F4FC801B7014CE050E078
:100610000E94B01482E893E0B8010E94EB11C80177
:100620000E941E13609197037091980385EF95E0E7
:100630004AE050E00E94F91285EF95E066E972E029
:100640000E941E128E01035E1F4FC801B70140E0D9
:1006500050E02CE030E00E945F1485EF95E0B80197
:100660000E94EB11C8010E941E1385EF95E066E918
:1006700072E00E941E126091990370919A0385EFB7
:1006800095E04AE050E00E94031385EF95E068E9A9
:1006900072E00E941E128E010C5D1F4FC801B7014F
:1006A0004CE050E00E94B01485EF95E0B8010E9444
:1006B000EB11C8010E941E13C7010E941E13AA96C7
:1006C0000FB6F894DEBF0FBECDBFCF91DF911F9163
:1006D0000F91FF90EF90DF90CF9008950F931F93AD
:1006E000DF93CF93CDB7DEB7A2970FB6F894DEBFF6
:1006F0000FBECDBF85EF95E040E855E260E070E0C9
:100700000E94311085EF95E06BE972E00E94511272
:1007100083E090E00E94C50160ED77E080E090E02A
:100720000E94E40B10929C0310929B038091FA02AA
:1007300062E00E94EB0C8091FB0262E00E94EB0CF5
:100740008091FC0262E00E94EB0C8091FD0262E06D
:100750000E94EB0C8091FE0262E00E94EB0C809103
:10076000FA0261E00E94300D8091FB0261E00E947C
:10077000300D8091FC0261E00E94300D8091FD02FD
:1007800061E00E94300D8091FE0261E00E94300D18
:1007900082E893E060E142E020E00E941C16CE0176
:1007A000089663EB72E00E942B078A859B859093E5
:1007B000AC038093AB038C859D85AE85BF8580930C
:1007C000AD039093AE03A093AF03B093B0038889B9
:1007D0009989AA89BB898093B1039093B203A093AE
:1007E000B303B093B403A5EBB3E0FE0174968DE0C0
:1007F00001900D928150E1F789A19AA19093C303D2
:100800008093C203CE0108960E94181880919D0320
:1008100090919E03880F991FE091C603F091C70342
:10082000E80FF91F608171818E010F5F1F4FC801B2
:100830000E949013C8010E947E02C8010E941E13EC
:10084000A2960FB6F894DEBF0FBECDBFCF91DF9159
:100850001F910F91089580919D0390919E030196A1
:1008600090939E0380939D032091C4033091C50310
:100870008217930724F010929E0310929D0308950F
:10088000EF92FF920F931F93DF93CF93CDB7DEB715
:10089000A2970FB6F894DEBF0FBECDBF81E090E007
:1008A00090939C0380939B031092A00310929F034C
:1008B00081E080931C031092A1031092A203109276
:1008C000A3031092A4030E94B00B6093A50370933E
:1008D000A6038093A7039093A80360919D03709152
:1008E0009E038091AB039091AC039B878A87809194
:1008F000AD039091AE03A091AF03B091B0038C878C
:100900009D87AE87BF878091B1039091B203A0917C
:10091000B303B091B403888B998BAA8BBB8B85E40E
:1009200093E099878887DE015496E5EBF3E08DE04C
:1009300001900D928150E1F78091C2039091C30321
:100940009AA389A338E0E32EF12CEC0EFD1E8E0154
:100950000F5F1F4FC801A7010E94FB08C8010E943A
:100960007E02C8010E941E13C7010E941818A29699
:100970000FB6F894DEBF0FBECDBFCF91DF911F91B0
:100980000F91FF90EF90089582E090E00E94C501E2
:1009900010929C0310929B0308950F931F93DF9373
:1009A000CF93CDB7DEB72E970FB6F894DEBF0FBE4C
:1009B000CDBF87E090E00E94C501809197039091A0
:1009C00098038730910539F48E010F5F1F4FC801DE
:1009D00063EC72E006C08E01085F1F4FC80160ED36
:1009E00072E00E949013C8010E947E02C8010E941A
:1009F0001E1382E090E090939C0380939B032E96BD
:100A00000FB6F894DEBF0FBECDBFCF91DF911F911F
:100A10000F910895EF92FF920F931F930E94B00BD6
:100A20007B018C012091A5033091A6034091A7037F
:100A30005091A8030E945B029B01AC0180910603C8
:100A400090910703A0910803B091090382179307BF
:100A5000A407B507D8F4E092A503F092A60300938B
:100A6000A7031093A80380919F039091A003019680
:100A70009093A00380939F0320911A0330911B034E
:100A8000821793071CF00E94C4043AC02091A1036E
:100A90003091A2034091A3035091A403C801B70170
:100AA0000E945B029B01AC01E0919F03F091A003C7
:100AB000EE0FFF1FEE0FFF1FE65FFC4F808191815D
:100AC000A281B38182179307A407B507C8F4809168
:100AD0001C03882319F080E090E002C081E090E0E0
:100AE0000E94C50180911C0391E0892780931C031B
:100AF000E092A103F092A2030093A3031093A40336
:100B00001F910F91FF90EF9008958AE593E00E9466
:100B10006F01882331F082E693E00E947B018823F5
:100B200059F482E693E00E946F01882339F08AE548
:100B300093E00E947B01089581E0089580E008958C
:100B4000EF92FF920F931F93DF93CF93CDB7DEB752
:100B5000EE970FB6F894DEBF0FBECDBF8AE593E0E7
:100B60000E944B0182E693E00E944B018AE693E0EB
:100B70000E944B0182E793E00E944B018AE793E0D9
:100B80000E944B0180919B0390919C0381309105C1
:100B900009F495C08230910509F4F4C0009709F07A
:100BA00027C18AE693E00E946F01882319F00E9412
:100BB00040041EC18AE793E00E946F01882301F17F
:100BC00084E090E00E94C5010E942B0480919D0367
:100BD00090919E03880F991FE091C603F091C7037F
:100BE000E80FF91F608171818E010F5F1F4FC801EF
:100BF0000E949013C8010E947E02C8010E941E1329
:100C00000E948505882329F086E090E00E94C501B6
:100C100044C08AE593E00E946F01882389F085E053
:100C200090E00E94C50180919703909198030196EE
:100C300090939803809397038E01085F1F4F16C00F
:100C400082E693E00E946F01882339F185E090E00D
:100C50000E94C5018091990390919A030196909307
:100C60009A03809399038E01015F1F4F80919D032A
:100C700090919E03880F991FE091C603F091C703DE
:100C8000E80FF91F60817181C8010E949013C801AB
:100C90000E947E02C8010E941E13809197039091CA
:100CA00098038730910541F08091990390919A03C0
:100CB0008730910509F09CC00E94CD0499C08AE656
:100CC00093E00E946F01882349F088E090E00E9441
:100CD000C50110929C0310929B038AC082E793E0A7
:100CE0000E946F01882309F44AC060919D037091AE
:100CF0009E038091AB039091AC039FA38EA3809140
:100D0000AD039091AE03A091AF03B091B00388A75B
:100D100099A7AAA7BBA78091B1039091B203A09114
:100D2000B303B091B4038CA79DA7AEA7BFA785E47A
:100D300093E09DA38CA3DE01D096E5EBF3E08DE07C
:100D400001900D928150E1F78091C2039091C3030D
:100D50009EAF8DAFE6E1EE2EF12CEC0EFD1E8E0166
:100D60000C5D1F4FC701A8010E94FB08C7010E942C
:100D70007E02C7010E941E13C8010E9418180E941B
:100D80000A0536C08AE693E00E946F01882331F499
:100D90008AE793E00E946F01882351F110929C032F
:100DA00010929B03109298031092970310929A034B
:100DB0001092990389E090E00E94C5018E01035EC4
:100DC0001F4F80919D0390919E03880F991FE09182
:100DD000C603F091C703E80FF91F60817181C80154
:100DE0000E949013C8010E947E02C8010E941E1337
:100DF000EE960FB6F894DEBF0FBECDBFCF91DF9158
:100E00001F910F91FF90EF90089581E090E00E9474
:100E10008201089580E090E00E94820108959C0183
:100E2000FC0101900020E9F73197E81BF90BCF0195
:100E30000197E20FF31F0BC04291442339F0403277
:100E400021F0493011F04A3021F41082019797FFC8
:100E5000F3CFC90108954F925F926F927F928F9264
:100E60009F92AF92BF92CF92DF92EF92FF920F9339
:100E70001F93DF93CF93CDB7DEB76B970FB6F89480
:100E8000DEBF0FBECDBF582E492E7B01082F192F74
:100E9000C8010E94051889E190E00E94A5115C013B
:100EA00089E1D5011D928A95E9F7CE0101966DE79A
:100EB00076E0A70121E00E946E198B819C81F801E8
:100EC000938382838D819E81AF81B885848395834E
:100ED000A683B78389859A85AB85BC8580879187F2
:100EE000A287B387D8011C96FE013D968DE0019044
:100EF0000D928150E1F78A8D9B8DD8015A969C9373
:100F00008E935997CE0101960E941818C801B50119
:100F100049E150E00E941E18C5010E942E2A7C0162
:100F20000894E11CF11CF092C503E092C403EE0C9E
:100F3000FF1CC7010E94C4276C019093C7038093D4
:100F4000C603C7010E94C4274C019093C903809334
:100F5000C803C7010E94C4277C019093CB038093F0
:100F6000CA0389E190E00E94C4276FED72E00E94FD
:100F7000782AF60180839183D7011D921C92F40197
:100F8000118210820E94B02A41E0C42ED12C2EC0C2
:100F9000C801B50149E150E00E941E184601880CC5
:100FA000991CE090C603F090C703E80CF91C89E196
:100FB00090E00E94C427782E692ED7018C93119659
:100FC0009C93C5010E940F07BC01872D962D0E949E
:100FD000782AE091C603F091C703E80DF91D8081DE
:100FE00091810E94B02A0894C11CD11C8091C40335
:100FF0009091C503C816D9065CF28824992421E093
:10100000E22EF12C4FC0C801B50149E150E00E9429
:101010001E18C5010E940F07FC018081882309F07A
:1010200041C03701660C771CC090C803D090C9033B
:10103000C60CD71CC8010E943518D60111967C93A6
:101040006E93B1E0EB16F10431F1E091CA03F09137
:10105000CB038091C8039091C903DC01A60DB71D95
:101060009C01280D391D8D919C91D9012D913C91A8
:10107000821B930B69E170E00E941D2B6150704050
:10108000DF01A80DB91D6D937C9380819181860F3E
:10109000971F918380830894E11CF11CE2E0F0E04B
:1010A0008E0E9F1EC8010E941B17009709F0ABCF40
:1010B0000894E108F108EE0CFF1CC090CA03D09020
:1010C000CB03CE0CDF1CC8010E943518E091C80389
:1010D000F091C903EE0DFF1D20813181442737FDBA
:1010E0004095542F621B730B840B950B29E130E064
:1010F00040E050E00E94302BD6012D933C93E091CC
:10110000CA03F091CB03EE0EFF1E80819181D701BF
:101110002D913C911197820F931F91838083852D90
:10112000942D6B960FB6F894DEBF0FBECDBFCF9156
:10113000DF911F910F91FF90EF90DF90CF90BF90C4
:10114000AF909F908F907F906F905F904F90089599
:10115000EF92FF920F931F93CF93DF93EC018B01DC
:1011600089E190E00E94A5117C01209761F40E9422
:1011700045296091C4037091C503615070400E947D
:101180001D2BEC0121960E944529CC0FDD1FE0911B
:10119000C803F091C903EC0FFD1FA091CA03B091E1
:1011A000CB03AC0FBD1F6D917C910E941D2B29E1DB
:1011B00030E0829FA001839F500D929F500D11241B
:1011C00080819181480F591F662757FD6095762FC2
:1011D000C8010E942B18C801B70149E150E00E94E4
:1011E0001E18C7010E940F07DF91CF911F910F9129
:1011F000FF90EF900895EF92FF920F931F93DF936C
:10120000CF93CDB7DEB76B970FB6F894DEBF0FBEA6
:10121000CDBF7C01FA01828193819C838B83848181
:101220009581A681B7818D839E83AF83B8878085A2
:101230009185A285B38589879A87AB87BC8785E42A
:1012400093E09A838983CE010D96445F5F4F2DE032
:10125000DA010D90AD01DC010D92CD012150C1F7F5
:10126000818D928D9B8F8A8FCB018E010F5F1F4FD7
:10127000B8010E94A808BC01C7010E949013C801D0
:101280000E941818C7016B960FB6F894DEBF0FBE08
:10129000CDBFCF91DF911F910F91FF90EF900895F7
:1012A000AF92BF92CF92DF92EF92FF920F931F9374
:1012B000CF93DF936C017B01FB0184819581CCE0AE
:1012C000D0E0C81BD90BD695C795B82EB1943CE099
:1012D000B30EBC1AC6016AEE72E00E94901300E0E1
:1012E00010E0D0E007C0C6016BEE72E00E941D1452
:1012F0000F5F1F4F0C171D07B4F3C601B7010E9403
:10130000151400E010E0CB2DD0E007C0C6016BEE55
:1013100072E00E941D140F5F1F4F0C171D07B4F3DE
:10132000C601DF91CF911F910F91FF90EF90DF9059
:10133000CF90BF90AF9008956F927F928F929F92BF
:10134000AF92BF92CF92DF92EF92FF920F931F93D3
:10135000DF93CF93CDB7DEB7EF970FB6F894DEBF2C
:101360000FBECDBF3C017B01CB010E94BC14CC243D
:10137000CA94DC2C5E010894A11CB11C18C0C501E4
:101380006BEE72E00E949013A6014F5F5F4FC701A2
:10139000B5010E9441148C01C5010E941E138FEFFC
:1013A0000F3F180751F00D3011053CF46801F701AB
:1013B000848195818D30910510F758E0A52EB12CD0
:1013C000AC0EBD1EC5016AEE72E00E9490134FE0A4
:1013D000842E912C8C0E9D1EC4016AEE72E00E9438
:1013E0009013FFEFCF16FFEFDF0651F4C501B701F1
:1013F0000E94AB13C4016AEE72E00E94D11322C0B6
:101400008E010A5E1F4FC801B70140E050E096010F
:101410000E945F14C501B8010E94AB13C8010E946D
:101420001E138E01035E1F4FA6014F5F5F4FC80161
:10143000B7010E94B014C401B8010E94AB13C801E7
:101440000E941E138C859D858D30910528F48B8913
:101450009C898D30910518F1C3016AEE72E00E94FB
:101460009013CE010F960E941E13CE0108960E9483
:101470001E13C301EF960FB6F894DEBF0FBECDBFAB
:10148000CF91DF911F910F91FF90EF90DF90CF9060
:10149000BF90AF909F908F907F906F9008958E0136
:1014A000055D1F4FC801BE01685F7F4F0E94C613D4
:1014B00034E2E32EF12CEC0EFD1EC701B8010E94B0
:1014C0005009C8010E941E1322E3C22ED12CCC0E5B
:1014D000DD1EC601BE01615F7F4F0E94C6138E01F3
:1014E000075C1F4FC801B6010E945009C701B8012F
:1014F0000E941514C8010E941E13C6010E941E13EB
:10150000C301B7010E94C613C7010E941E13A9CFD1
:101510001F93CF93DF93182FEB0161E00E94EB0C38
:10152000209709F4CAC0CF3FD10509F4C9C0E12F03
:10153000F0E0E254FE4FE491E93009F466C0EA308D
:10154000B0F4E430F1F1E53040F4E23059F1E33049
:1015500070F5E13009F0AEC020C0E73009F443C0B7
:10156000E83008F048C0E63009F0A4C034C0ED30DF
:1015700009F478C0EE3038F4EB3009F45AC0EC309E
:1015800008F066C04CC0E03109F480C0E13109F4D4
:1015900087C0EF3009F08EC06FC084B5806884BD0D
:1015A000C7BD92C084B5806284BDC8BD8DC0809126
:1015B0008000806880938000D0938900C093880069
:1015C00083C080918000806280938000D0938B00E4
:1015D000C0938A0079C08091B00080688093B00089
:1015E000C093B30071C08091B00080628093B0005E
:1015F000C093B40069C0809190008068809390008F
:10160000D0939900C09398005FC080919000806251
:1016100080939000D0939B00C0939A0055C0809116
:101620009000886080939000D0939D00C0939C00B0
:101630004BC08091A00080688093A0008091A000A2
:101640008F7B8093A000D093A900C093A8003CC0DA
:101650008091A00080628093A000D093AB00C093E3
:10166000AA0032C08091A00088608093A000D0932F
:10167000AD00C093AC0028C08091200180688093A9
:101680002001D0932901C09328011EC08091200120
:10169000806280932001D0932B01C0932A0114C053
:1016A00080912001886080932001D0932D01C09308
:1016B0002C010AC0C038D1051CF4812F60E002C0A3
:1016C000812F61E00E94300DDF91CF911F9108952D
:1016D0001F920F920FB60F9211242F933F938F9367
:1016E0009F93AF93BF938091D0039091D103A0912A
:1016F000D203B091D3033091D4030196A11DB11D43
:10170000232F2D5F2D3720F02D570196A11DB11DE0
:101710002093D4038093D0039093D103A093D2035A
:10172000B093D3038091CC039091CD03A091CE03CD
:10173000B091CF030196A11DB11D8093CC0390936E
:10174000CD03A093CE03B093CF03BF91AF919F91F0
:101750008F913F912F910F900FBE0F901F90189572
:101760008FB7F8942091D0033091D1034091D203E8
:101770005091D3038FBFB901CA0108959FB7F89460
:101780002091CC033091CD034091CE035091CF03F3
:1017900086B5A89B06C08F3F21F02F5F3F4F4F4F6C
:1017A0005F4F9FBF542F432F322F2227280F311D09
:1017B000411D511D82E0220F331F441F551F8A9582
:1017C000D1F7B901CA010895EF92FF920F931F93C9
:1017D000CF93DF937B018C010E94BE0BEB010FC006
:1017E0000E94BE0B6C1B7D0B83E0683E780738F0CF
:1017F0000894E108F10801091109C851DC4FE1140E
:10180000F1040105110561F7DF91CF911F910F914F
:10181000FF90EF900895019739F0880F991F880F76
:10182000991F02970197F1F70895789484B5826023
:1018300084BD84B5816084BD85B5826085BD85B574
:10184000816085BDEEE6F0E0808181608083E1E823
:10185000F0E010828081826080838081816080835B
:10186000E0E8F0E0808181608083E1EBF0E080815E
:1018700084608083E0EBF0E0808181608083E1E937
:10188000F0E0808182608083808181608083E0E9F4
:10189000F0E0808181608083E1EAF0E08081826015
:1018A0008083808181608083E0EAF0E080818160D4
:1018B0008083E1E2F1E080818260808380818160C9
:1018C0008083E0E2F1E0808181608083EAE7F0E0FC
:1018D0008081846080838081826080838081816058
:1018E00080838081806880831092C1000895893050
:1018F00009F449C08A30A0F4843051F1853040F4B5
:10190000823079F1833000F5813009F063C026C060
:10191000873079F1883098F5863009F05BC025C0B2
:101920008D3009F442C08E3028F48B30B1F18C3008
:10193000C0F52DC0803109F442C0813109F445C0A1
:101940008F3009F047C037C0809180008F7703C087
:10195000809180008F7D80938000089584B58F777B
:1019600002C084B58F7D84BD08958091B0008F77CB
:1019700003C08091B0008F7D8093B0000895809166
:1019800090008F7707C0809190008F7D03C0809179
:101990009000877F8093900008958091A0008F77BA
:1019A00007C08091A0008F7D03C08091A000877F39
:1019B0008093A0000895809120018F7703C08091CB
:1019C00020018F7D80932001089580912001877FE1
:1019D000809320010895EF92FF92CF93DF9390E0E0
:1019E000FC01E858FE4F44918E5C9E4FFC018491AF
:1019F000882389F190E0880F991FFC01EC51FF4F7B
:101A000025913491D90182509F4FFC012591349149
:101A1000E22EE7017E01F32EE701662349F49FB72A
:101A2000F8948C91409584238C93888184230BC0F7
:101A3000623059F49FB7F8948C91242F209582231B
:101A40008C938881842B888305C09FB7F8948C91F0
:101A5000842B8C939FBFDF91CF91FF90EF900895DF
:101A60000F931F93DF93CF930F92CDB7DEB7282F3D
:101A700030E0F901E254FE4F8491F901E858FE4F3D
:101A800014912E5C3E4FF90104910023D9F0882374
:101A900021F069830E94770C6981E02FF0E0EE0F5E
:101AA000FF1FE250FF4F85919491DC019FB7F8949E
:101AB000662321F48C911095812302C08C91812B97
:101AC0008C939FBF0F90CF91DF911F910F9108953D
:101AD0000F931F93282F30E0F901E254FE4F8491B9
:101AE000F901E858FE4F04912E5C3E4FF901149124
:101AF000112391F0882311F00E94770CE12FF0E080
:101B0000EE0FFF1FE85EFE4F85919491DC018C91F2
:101B1000802321E030E011F420E030E0C9011F9182
:101B20000F910895FC0184859585FC01E05CFF4FD1
:101B3000208131818E5B9F4FFC0180819181281B28
:101B4000390B2F733070C9010895FC018485958588
:101B5000FC01E05CFF4F40815181FC01EE5BFF4FD7
:101B6000208131814217530741F00190F081E02D2F
:101B7000E80FF91F208130E002C02FEF3FEFC901CD
:101B80000895FC0184859585FC01E05CFF4F408150
:101B90005181FC01EE5BFF4F2081318142175307D9
:101BA00071F0A081B181A80FB91F2C918081918122
:101BB00001968F7390709183808330E002C02FEF85
:101BC0003FEFC9010895FC0181A1882329F0A48970
:101BD000B5898C9186FFFBCF11A20895FC01268563
:101BE0003785D901A05CBF4F8D919C9101968F7371
:101BF0009070D901AE5BBF4F4D915C9111978417E6
:101C00009507D1F3D901A05CBF4F0D90BC91A02DD9
:101C1000A20FB31F6C93A685B785A05CBF4F11962A
:101C20009C938E93A689B7892C9181E090E0078CD4
:101C300002C0880F991F0A94E2F7282B2C9381E0A9
:101C400081A30488F589E02D80818064808381E010
:101C500090E00895FB01E05CFF4F208131812F5F10
:101C60003F4F2F733070DB01AE5BBF4F4D915C91E6
:101C700011972417350739F0A081B181A60FB71F3E
:101C80008C9331832083089508951F920F920FB68D
:101C90000F920BB60F9211242F933F934F935F93A4
:101CA0006F937F938F939F93AF93BF93EF93FF9324
:101CB0008091C00082FD07C08091C60065ED73E091
:101CC0000E942A0E02C08091C600FF91EF91BF9141
:101CD000AF919F918F917F916F915F914F913F91C4
:101CE0002F910F900BBE0F900FBE0F901F90189565
:101CF00008951F920F920FB60F920BB60F921124F8
:101D00002F933F934F935F936F937F938F939F9303
:101D1000AF93BF93EF93FF938091C80082FD07C0FC
:101D20008091CE006DE574E00E942A0E02C0809181
:101D3000CE00FF91EF91BF91AF919F918F917F91D5
:101D40006F915F914F913F912F910F900BBE0F902C
:101D50000FBE0F901F90189508951F920F920FB607
:101D60000F920BB60F9211242F933F934F935F93D3
:101D70006F937F938F939F93AF93BF93EF93FF9353
:101D80008091D00082FD07C08091D60065EE74E09E
:101D90000E942A0E02C08091D600FF91EF91BF9160
:101DA000AF919F918F917F916F915F914F913F91F3
:101DB0002F910F900BBE0F900FBE0F901F90189594
:101DC00008951F920F920FB60F920BB60F92112427
:101DD0002F933F934F935F936F937F938F939F9333
:101DE000AF93BF93EF93FF938091300182FD07C0C3
:101DF000809136016DE675E00E942A0E02C0809146
:101E00003601FF91EF91BF91AF919F918F917F919B
:101E10006F915F914F913F912F910F900BBE0F905B
:101E20000FBE0F901F90189585EF95E00E94920DC0
:101E3000009711F00E94440E87E196E00E94920DF7
:101E4000009711F00E94780E89E396E00E94920DAF
:101E5000009711F00E94AC0E8BE596E00E94920D67
:101E6000009711F00E94E00E08951F920F920FB696
:101E70000F920BB60F9211242F933F938F939F9342
:101E8000EF93FF932091590430915A0480915B04A1
:101E900090915C042817390731F48091C1008F7D3F
:101EA0008093C10014C0E0915B04F0915C04E75E94
:101EB000FB4F208180915B0490915C0401968F73AD
:101EC000907090935C0480935B042093C600FF9114
:101ED000EF919F918F913F912F910F900BBE0F909B
:101EE0000FBE0F901F9018951F920F920FB60F9272
:101EF0000BB60F9211242F933F938F939F93EF93E1
:101F0000FF932091E1043091E2048091E3049091E9
:101F1000E4042817390731F48091C9008F7D80933C
:101F2000C90014C0E091E304F091E404EF55FB4FC5
:101F300020818091E3049091E40401968F73907066
:101F40009093E4048093E3042093CE00FF91EF91FB
:101F50009F918F913F912F910F900BBE0F900FBECD
:101F60000F901F9018951F920F920FB60F920BB6FD
:101F70000F9211242F933F938F939F93EF93FF938F
:101F80002091690530916A0580916B0590916C05EF
:101F90002817390731F48091D1008F7D8093D100CB
:101FA00014C0E0916B05F0916C05E75DFA4F20815C
:101FB00080916B0590916C0501968F739070909352
:101FC0006C0580936B052093D600FF91EF919F9154
:101FD0008F913F912F910F900BBE0F900FBE0F90DE
:101FE0001F9018951F920F920FB60F920BB60F927B
:101FF00011242F933F938F939F93EF93FF932091FF
:10200000F1053091F2058091F3059091F4052817C0
:10201000390731F4809131018F7D8093310114C0F3
:10202000E091F305F091F405EF54FA4F208180918F
:10203000F3059091F40501968F7390709093F405D9
:102040008093F30520933601FF91EF919F918F913B
:102050003F912F910F900BBE0F900FBE0F901F90CE
:102060001895DF92EF92FF920F931F93CF93DF9318
:10207000EC017A018B01DD24D394403081EE5807C6
:1020800080E0680780E0780749F4DD24EC89FD8969
:10209000108260E874E88EE190E00FC0EC89FD8961
:1020A00081E090E008A002C0880F991F0A94E2F72F
:1020B000808360E079E08DE390E0A80197010E94C1
:1020C000302B215030404040504056954795379531
:1020D000279580E12030380710F0DD20B1F6E8893F
:1020E000F9893083EA89FB89208319A2EE89FF8967
:1020F000408181E090E09C010C8C02C0220F331FD4
:102100000A94E2F7422B4083EE89FF8940819C01CB
:102110000D8C02C0220F331F0A94E2F7422B40833A
:10212000EE89FF8940819C010E8C02C0220F331F73
:102130000A94E2F7422B4083EE89FF8920810F8CBD
:1021400002C0880F991F0A94E2F78095822380834A
:10215000DF91CF911F910F91FF90EF90DF90089545
:102160001F93CF93DF931092F8051092F70588EE36
:1021700093E0A0E0B0E08093F9059093FA05A09376
:10218000FB05B093FC05E7EFF5E025E233E0329381
:10219000229345ED53E05587448749E154E0578742
:1021A000468745EC50E0518B408B44EC50E0538B1C
:1021B000428B40EC50E0558B448B41EC50E0578B08
:1021C000468B42EC50E0518F408F46EC50E0538FED
:1021D000428F14E0148F73E0758F67E0668F55E0CF
:1021E000578F41E040A310921A061092190680936F
:1021F0001B0690931C06A0931D06B0931E06E9E1F2
:10220000F6E032932293CDE5D4E0D587C487C1EAC6
:10221000D4E0D787C687CDECD0E0D18BC08BCCEC97
:10222000D0E0D38BC28BC8ECD0E0D58BC48BC9EC8B
:10223000D0E0D78BC68BCAECD0E0D18FC08FCEEC6C
:10224000D0E0D38FC28F148F758F668F578F40A3C6
:1022500010923C0610923B0680933D0690933E06FA
:10226000A0933F06B0934006EBE3F6E0329322934F
:10227000C5EED4E0D587C487C9E2D5E0D787C68745
:10228000C5EDD0E0D18BC08BC4EDD0E0D38BC28B39
:10229000C0EDD0E0D58BC48BC1EDD0E0D78BC68B21
:1022A000C2EDD0E0D18FC08FC6EDD0E0D38FC28F0A
:1022B000148F758F668F578F40A310925E06109211
:1022C0005D0680935F0690936006A0936106B093CD
:1022D0006206EDE5F6E0329322938DE695E0958770
:1022E000848781EB95E09787868785E391E0918BE2
:1022F000808B84E391E0938B828B80E391E0958BDC
:10230000848B81E391E0978B868B82E391E0918FC0
:10231000808F86E391E0938F828F148F758F668F05
:10232000578F40A3DF91CF911F910895CF93DF93F3
:102330000E94150C0E946E03C4E1DFE00E94A0051C
:102340002097E1F30E94140FF9CF0E94C42708954B
:10235000CF92DF92EF92FF920F931F93CF93DF9371
:102360006C017B018A01C0E0D0E00FC0D7016D9104
:102370007D01D601ED91FC910190F081E02DC60127
:102380001995C80FD91F015010400115110571F79B
:10239000CE01DF91CF911F910F91FF90EF90DF90D1
:1023A000CF9008956115710591F0DB010D9000202B
:1023B000E9F7AD0141505040461B570BDC01ED9150
:1023C000FC910280F381E02D19959C0102C020E070
:1023D00030E0C9010895AF92BF92CF92DF92EF92A1
:1023E000FF920F931F93CF93DF937C016B01C0E0AB
:1023F000D0E000E010E010C0D701ED91FC91A0808A
:10240000B180C601BE010E942E14682FC701F501DC
:102410001995080F191F2196F60184819581C81717
:10242000D90750F3C801DF91CF911F910F91FF9011
:10243000EF90DF90CF90BF90AF9008950E94D2119F
:102440000895DC01ED91FC910190F081E02D19954A
:1024500008950F931F93CF93DF93EC016DE00E94DB
:1024600021128C01CE016AE00E942112080F191F6F
:10247000C801DF91CF911F910F9108950F931F9382
:10248000CF93DF93EC010E94EB118C01CE010E94EF
:102490002912080F191FC801DF91CF911F910F91C9
:1024A00008950F931F93CF93DF93EC010E94D211F5
:1024B0008C01CE010E942912080F191FC801DF915B
:1024C000CF911F910F9108958F929F92AF92BF92DB
:1024D000CF92DF92EF92FF920F931F93DF93CF93F0
:1024E000CDB7DEB7A1970FB6F894DEBF0FBECDBF54
:1024F0006C01042FE52FCB01122F19A2223008F412
:102500001AE021E2E22EF12CEC0EFD1E812E992420
:10251000AA24BB2403C0022FE32FCA01602F7E2F01
:10252000A50194010E94302B129F802D1124081BBD
:102530000894E108F1080A3014F4005D01C0095C58
:10254000F7010083211531054105510521F7C60129
:10255000B7010E94D211A1960FB6F894DEBF0FBE4C
:10256000CDBFCF91DF911F910F91FF90EF90DF9042
:10257000CF90BF90AF909F908F900895CF92DF92B1
:10258000EF92FF920F931F93CF93DF93EC017A01A9
:102590008B012115310541F4E881F9810190F08129
:1025A000E02D642F19951AC02A303105A9F477FF60
:1025B00012C06DE20E9421126C0144275527BA0116
:1025C0004E195F09600B710BCE012AE00E94641264
:1025D000C80ED91E04C02AE00E9464126C01C60114
:1025E000DF91CF911F910F91FF90EF90DF90CF90EF
:1025F00008959A01FB01AF01662757FD6095762F7C
:102600000E94BE1208950F931F93CF93DF93EC01A6
:102610009A01CB01AC01662757FD6095762FCE015C
:102620000E94BE128C01CE010E942912080F191FB0
:10263000C801DF91CF911F910F910895FC01808116
:1026400091810E945E280895CF93DF93EC018881E9
:102650009981009711F00E945E28198218821D82CC
:102660001C821B821A82DF91CF9108950F931F93D2
:10267000CF93DF93EC018B016F5F7F4F888199814E
:102680000E945529009731F0998388831B830A8320
:1026900081E001C080E0DF91CF911F910F910895FB
:1026A000CF93DF93EC0188819981009729F08A818B
:1026B0009B818617970778F4CE010E9436138823F2
:1026C00041F08C819D81009731F4E881F98110827D
:1026D00002C080E001C081E0DF91CF910895EF92C8
:1026E000FF920F931F93CF93DF93EC017B018A013D
:1026F000BA010E945013882321F4CE010E942413B2
:1027000007C01D830C8388819981B7010E94782AB4
:10271000CE01DF91CF911F910F91FF90EF9008951F
:10272000CF93DF93FC0111821082138212821582F3
:10273000148216826115710559F0EB010990002091
:10274000E9F7AE0141505040461B570B0E946F13F2
:10275000DF91CF910895EF92FF92CF93DF93EC0139
:10276000FB018617970761F0608171816115710522
:1027700029F0448155810E946F1302C00E942413E6
:10278000CE01DF91CF91FF90EF900895FC0111826F
:102790001082138212821582148216820E94AB1359
:1027A00008950F931F938C016115710561F0DB0192
:1027B0000D900020E9F7AD0141505040461B570BEA
:1027C0000E946F1302C00E942413C8011F910F9131
:1027D0000895EF92FF920F931F93CF93DF93EC0135
:1027E0007B010C811D8161157105B9F04115510501
:1027F00091F0040F151FB8010E945013882369F04F
:10280000288139818C819D81820F931FB7010E949D
:10281000782A1D830C8381E001C080E0DF91CF9195
:102820001F910F91FF90EF900895FB0160817181DE
:10283000448155810E94E91308956115710561F085
:10284000DB010D900020E9F7AD0141505040461BDF
:10285000570B0E94E913089580E00895FC018481DC
:1028600095816817790748F480819181009739F044
:10287000680F791FFB018081089580E0089580E052
:102880000895CF93DF93FC01CA012481358142175B
:10289000530778F4C081D181FB01608171818C0F75
:1028A0009D1F0E948E2A009721F09C012C1B3D0B3E
:1028B00002C02FEF3FEFC901DF91CF910895AF9292
:1028C000BF92CF92DF92EF92FF920F931F93CF931D
:1028D000DF93F82EE92E6B018A01E90124173507F1
:1028E00048F4342F212F8E01C901A92EE5015E0184
:1028F000B22EE5018F2D9E2D6DEE72E00E94901399
:10290000D60114968D919C91159780179107D8F058
:102910008C179D0708F4EC01D601ED91FC911197FD
:10292000EC0FFD1FB08010826D917C91600F711FC4
:102930008F2D9E2D0E94D113D601ED91FC91119700
:10294000EC0FFD1FB0828F2D9E2DDF91CF911F9137
:102950000F91FF90EF90DF90CF90BF90AF900895D0
:10296000CF93DF93EC01FB01248135810E945F143A
:10297000CE01DF91CF910895AF92BF92CF92DF92B7
:10298000EF92FF920F931F93CF93DF936C01DC01C3
:10299000ED90FC901197E114F10409F443C01496F2
:1029A000AD90BC901597A114B104E1F18701E80145
:1029B00088810F5F1F4F992787FD90950E944F2AAE
:1029C0000097A9F78501015010400E0D1F1DF80159
:1029D0008081992787FD90950E944F2A009731F0BA
:1029E0000C171D0718F001501040F1CF0F5F1F4F5B
:1029F0000C1B1D0BD60115961C930E931497EC1609
:102A0000FD0628F4C701BE01A8010E94642AD60170
:102A1000ED91FC91119714968D919C911597E80F6B
:102A2000F91F1082DF91CF911F910F91FF90EF90CE
:102A3000DF90CF90BF90AF900895CF93DF93EC01DC
:102A40008E8160E00E94300D81E090E00E940B0CCE
:102A50008E8161E00E94300D81E090E00E940B0CBD
:102A60008E8160E00E94300D84E690E00E940B0CA5
:102A7000DF91CF910895AF92BF92CF92DF92EF9204
:102A8000FF920F931F93CF93DF937C018C01095F1B
:102A90001F4FC0E0D0E0A62EBB246801F801819151
:102AA0008F0161E00E94EB0CB5010C2E02C0759500
:102AB00067950A94E2F76170F60180810E94300DFB
:102AC0002196C430D10549F7C7010E941D15DF9139
:102AD000CF911F910F91FF90EF90DF90CF90BF901B
:102AE000AF900895AF92BF92CF92DF92EF92FF9294
:102AF0000F931F93CF93DF937C018C01095F1F4FCE
:102B0000C0E0D0E0A62EBB246801F80181918F01BE
:102B100061E00E94EB0CB5010C2E02C07595679523
:102B20000A94E2F76170F60180810E94300D2196CF
:102B3000C830D10549F7C7010E941D15DF91CF911B
:102B40001F910F91FF90EF90DF90CF90BF90AF90CB
:102B500008951F93CF93DF93EC01162F8C81642F80
:102B60000E94300D8D818F3F19F060E00E94300D82
:102B70008F8584FF05C0CE01612F0E9472150FC0A2
:102B8000212F30E084E0359527958A95E1F7CE0135
:102B9000622F0E943B15CE01612F0E943B15DF91F1
:102BA000CF911F91089541E00E94A91581E090E026
:102BB000089540E00E94A9150895FC016089262F20
:102BC0002460208B6C600E94D9150895DF93CF9309
:102BD000CDB7DEB728970FB6F894DEBF0FBECDBFD6
:102BE000FE013196A9E3B3E028E00D900192215057
:102BF000E1F7FC012389421710F0422F4150E42FE6
:102C0000F0E0EE0FFF1FEC0FFD1F2181260F206863
:102C1000622F0E94D91528960FB6F894DEBF0FBE1A
:102C2000CDBFCF91DF91089561E00E94D91580ED6D
:102C300097E00E940B0C0895CF93DF93EC01423094
:102C400018F08F8588608F874B8B1C8A222329F090
:102C5000413019F48F8584608F8780E593EC0E9462
:102C60000B0C8C8160E00E94300D8E8160E00E9430
:102C7000300D8D818F3F19F060E00E94300D6F851F
:102C800064FD1DC0CE0163E00E943B1584E991E123
:102C90000E940B0CCE0163E00E943B1584E991E198
:102CA0000E940B0CCE0163E00E943B1586E990E088
:102CB0000E940B0CCE0162E00E943B1516C06062C0
:102CC000CE010E94D91584E991E10E940B0C6F8519
:102CD0006062CE010E94D91586E990E00E940B0C3B
:102CE0006F856062CE010E94D9156F856062CE014A
:102CF0000E94D91584E0888BCE010E94DD15CE019B
:102D00000E94141682E0898BCE0166E00E94D915DC
:102D1000DF91CF9108956F927F928F92AF92CF9271
:102D2000EF920F931F93DF93CF93CDB7DEB73C01A4
:102D3000162F842FF301448325830683E782C08600
:102D4000A18682869E8593879F859487988995879B
:102D50009989968761E00E94EB0CF30185818F3F92
:102D600019F061E00E94EB0CF301868161E00E94A2
:102D7000EB0C112319F0F301178603C080E1F30176
:102D80008787C30160E141E020E00E941C16CF91DB
:102D9000DF911F910F91EF90CF90AF908F907F9028
:102DA0006F9008958F92AF92CF92EF920F93CF933F
:102DB000DF93A62F742F522F302FAE2C8C2CEC01CA
:102DC0001B821A82E5E3F3E0F983E88300D00F92D7
:102DD000EDB7FEB73196CDB7DEB7198211821282F8
:102DE000138261E04A2F2FEF072FE52EC32E0E949A
:102DF0008B160F900F900F900F90DF91CF910F9146
:102E0000EF90CF90AF908F900895DF93CF930F9274
:102E1000CDB7DEB76983DC01ED91FC910280F381CF
:102E2000E02DBE016F5F7F4F41E050E019950F909C
:102E3000CF91DF910895DC015996ED91FC915A975D
:102E40003097D1F083899489A589B6892285338505
:102E500044855585821B930BA40BB50B803020E86D
:102E6000920720E0A20720E0B20720F08FEF9FE753
:102E7000A0E0B0E09C0102C020E030E0C90108956C
:102E8000FC01818D928D009711F00E94C71F08955B
:102E9000CF93DF93EC01898D9A8D009761F0FC014F
:102EA000138212820E9464229C01E98DFA8D828134
:102EB0009381009731F081E090E09B838A8320E04A
:102EC00030E0C901DF91CF910895DF93CF930F9246
:102ED000CDB7DEB7BE016F5F7F4F41E050E00E948B
:102EE000A31D8130910519F4298130E002C02FEF34
:102EF0003FEFC9010F90CF91DF910895FC01818DC3
:102F0000928D009721F00E9465179C0102C02FEF5F
:102F10003FEFC90108950F931F93FC0102851385AC
:102F200024853585400F511F621F731F0E94231F88
:102F30001F910F910895EF92FF920F931F93CF93DC
:102F4000DF938C01FC01818D928D009789F00E94A6
:102F50006517EC01FFEF8F3F9F0761F0F801818D4E
:102F6000928D4FEF5FEF6FEF7FEF0E948B1702C0E4
:102F7000C0E0D0E0CE01DF91CF911F910F91FF9083
:102F8000EF900895EF92FF920F931F93DF93CF93EB
:102F90000F920F92CDB7DEB77C018A01FC0113823C
:102FA000128288EE93E0A0E0B0E084839583A6834C
:102FB000B78385E493E0918380838DE190E069831A
:102FC0007A830E94C427F701928F818F69817A8169
:102FD000009791F0DC01862F972FFC018DE1019085
:102FE0000D928150E1F7C7010C96B8014CE050E01A
:102FF0000E947F2AF701108E0F900F90CF91DF91E2
:103000001F910F91FF90EF900895FC01138212829F
:1030100028EE33E040E050E0248335834683578335
:1030200085E493E091838083128E118E1486089537
:1030300025E433E0FC01318320830895FC01818D78
:10304000928D009721F00E94A31D9C0102C020E0F8
:1030500030E0C9010895FC01818D928D009719F02F
:103060000E94231F089580E00895DC015996ED9198
:10307000FC915A97309729F02285338544855585F0
:1030800004C02FEF3FEF4FEF5FEFB901CA01089582
:103090002F923F924F925F926F927F928F929F9268
:1030A000AF92BF92CF92DF92EF92FF920F931F9356
:1030B000DF93CF93CDB7DEB7C754D0400FB6F894A7
:1030C000DEBF0FBECDBF782E692EFB012A0119018C
:1030D00084A595A5998B888B25E533E03F872E87BE
:1030E00086A58A8B87A58B8B80A991A9A2A9B3A954
:1030F0008C8B9D8BAE8BBF8B84A995A9A6A9B7A9F4
:10310000888F998FAA8FBB8F80AD91ADA2ADB3ADE3
:103110008C8F9D8FAE8FBF8F84AD88A3DB01DD9632
:103120008D919D910D90BC91A02D89A39AA3ABA3E5
:10313000BCA3DB01AF5BBF4F8D919D910D90BC9106
:10314000A02D8DA39EA3AFA3B8A7EB5BFF4F8081FB
:1031500091819AA789A71EA61DA63CA72BA718AAEE
:103160007A012BE2C22ED12CCC0EDD1E8E01025F25
:103170001F4F5E010894A11CB11C37C0D7012C91D0
:103180002F3221F40894E11CF11C2FC08E198D30D0
:1031900008F08CE0882E9924C501B701A4010E9493
:1031A0007F2AF501E80DF91D1082C6010E940C204E
:1031B000C601B801A50121E00E945821882351F4DD
:1031C000E72DF62D1382128285E593E091838083AB
:1031D000158268C0E80CF91CC8010E940C20302F31
:1031E000212F8601C901C92ED82EC7016FE270E0D8
:1031F0000E946D2A009711F6E418F508F101F1829A
:10320000E082E72DF62DD80112968D919C911397AF
:103210009383828385E593E09183808314968C91D8
:103220001497848315968C911597858316962D9106
:103230003D914D915C911997268337834087518743
:103240001A962D913D914D915C911D972287338760
:10325000448755871E962D913D914D915C915197D4
:1032600026873787408B518B52968C915297828B51
:1032700053962D913D914D915C915697238B348BB4
:10328000458B568B57962D913D914D915C915A9758
:10329000278B308F418F528F5B968D919C915C97DD
:1032A000948F838F872D962DC95BDF4F0FB6F894CF
:1032B000DEBF0FBECDBFCF91DF911F910F91FF9069
:1032C000EF90DF90CF90BF90AF909F908F907F90C6
:1032D0006F905F904F903F902F9008958F929F92A4
:1032E000BF92CF92DF92EF92FF920F931F93DF93E3
:1032F000CF93CDB7DEB7C657D0400FB6F894DEBF38
:103300000FBECDBF7C014A01B22E33E0C32ED12CBB
:10331000CC0EDD1EC6019E012F5F3F4F0E94481854
:1033200009811A81080D191DF801208185E593E0B6
:1033300048852223F1F52D813E813BA32AA399A341
:1033400088A38F818CA34DA389859A85AB85BC8585
:103350008EA39FA3A8A7B9A78D859E85AF85B889A1
:103360008AA79BA7ACA7BDA789899A89AB89BC8985
:103370008EA79FA7A8ABB9AB8D898AAB8E899F8991
:10338000A88DB98D8BAB9CABADABBEAB8A8D9B8D45
:10339000AC8DBD8D8FAB98AFA9AFBAAF8E8D9F8D21
:1033A0009CAF8BAFC701BE01605E7F4F4EEE52E017
:1033B00098C0FE01FF96118210829EAF8DAFFE0174
:1033C000EE5BFF4F10824423A9F04250CE01CD9610
:1033D000423048F467EA76E0A8012B2D0E9458217C
:1033E000882379F407C0B601A8012B2D0E9458212B
:1033F000882321F4C7010E94051875C0C6010E94E8
:103400000C208B2D867059F0FE01E05BFF4F408150
:10341000518162817381CE01CD960E94231FFE01EE
:10342000E65AFF4FDE01DF968D919C919383828354
:1034300085E593E091838083DE01AF5BBF4F8C9184
:103440008483DE01AE5BBF4F8C918583DE01AD5B73
:10345000BF4F8D919D910D90BC91A02D8683978338
:10346000A087B187DE01A95BBF4F8D919D910D9023
:10347000BC91A02D82879387A487B587DE01A55BC9
:10348000BF4F8D919D910D90BC91A02D8687978700
:10349000A08BB18BDE01A15BBF4F8C91828BDE01D3
:1034A000A05BBF4F8D919D910D90BC91A02D838B02
:1034B000948BA58BB68BDE01AC5ABF4F8D919D913D
:1034C0000D90BC91A02D878B908FA18FB28FDE01C4
:1034D000A85ABF4F8D919C91948F838FC701BF01D4
:1034E000A8010E94C217C701CA58DF4F0FB6F8944F
:1034F000DEBF0FBECDBFCF91DF911F910F91FF9027
:10350000EF90DF90CF90BF909F908F900895109292
:10351000820610928306109286061092880682E038
:1035200090E0A0E0B0E08093890690938A06A09393
:103530008B06B0938C061092A0061092AA061092E9
:10354000A90685E593E09093A8068093A7061092BC
:10355000AC0608958EBD0DB407FEFDCF08958FEF24
:103560000E94AA1A8EB50895FC01848161E00E9430
:10357000300D0895FC01848160E00E94300D0895B3
:10358000CF93DF93EC018E818823D1F08FEF8EBD36
:103590004FEF04C00DB407FEFDCF4EBD8F8198855F
:1035A0009C012F5F3F4F38872F8322E081309207A5
:1035B00088F30DB407FEFDCFCE010E94B41A1E821F
:1035C000DF91CF9108950F931F93CF93DF93EB017A
:1035D0000E94B00B8B010E94AF1A8F3F49F00E94EE
:1035E000B00B601B710B6C177D07A8F380E001C066
:1035F00081E0DF91CF911F910F910895AF92BF921B
:10360000CF92DF92EF92FF921F93CF93DF93EC0163
:10361000162F59016A010E94C01ACE010E94BA1ADF
:10362000CE016CE271E00E94E31A812F80640E9457
:10363000AA1A88E1E82EF12CD601C5010E2C04C08F
:10364000B695A795979587950A94D2F70E94AA1ADE
:1036500088EF9FEFE80EF91E98EFE9169FEFF90645
:1036600059F7112321F0183021F08FEF03C085E9BD
:1036700001C087E80E94AA1A10E00E94AF1A8A8748
:1036800087FF02C01150C9F7DF91CF911F91FF90C2
:10369000EF90DF90CF90BF90AF9008950F931F935E
:1036A000CF93DF93EC010E94B00B8B010AC00E9404
:1036B000B00B601B710B81E06D32780710F08FE06A
:1036C00008C00E94AF1A8A878F3F89F38E3F39F076
:1036D0008DE08D83CE010E94B41A80E001C081E0AC
:1036E000DF91CF911F910F9108958F929F92AF928A
:1036F000BF92CF92DF92EF92FF920F931F93CF93DF
:10370000DF93EC015A016B0149010115110509F420
:103710007EC0C801820F931F22E08130920708F01B
:1037200071C08E81882371F088819981AA81BB81C3
:10373000481759076A077B0729F48F8198858816EF
:10374000990618F5A882B982CA82DB828B858330FC
:1037500039F0F9E0AA0CBB1CCC1CDD1CFA95D1F7A2
:10376000CE0161E1A60195010E94FE1A882319F09D
:1037700083E08D8347C0CE010E944E1B882309F44D
:1037800041C018861F8281E08E838FEF8EBD2FEFA0
:1037900009C00DB407FEFDCF2EBD8F81988501961F
:1037A00098878F838F8198858815990590F3980164
:1037B00021503040F70180E090E04FEF07C00DB49A
:1037C00007FEFDCF5EB551934EBD0196821793075C
:1037D000B0F30DB407FEFDCF8EB5E20EF31EF70178
:1037E00080838F819885800F911F98878F8329858B
:1037F000222321F0F2E080309F0748F0CE010E94A2
:10380000C01A05C0CE010E94B41A80E001C081E058
:10381000DF91CF911F910F91FF90EF90DF90CF90AC
:10382000BF90AF909F908F900895EF92FF920F936B
:103830001F93790120E030E000E012E00E94751B48
:103840001F910F91FF90EF900895CF93DF93EC01BC
:103850006EBDE42FF52F80E090E00DB407FEFDCFA4
:1038600020812EBD0DB407FEFDCF21812EBD029615
:10387000329622E08030920781F70DB407FEFDCF2B
:103880008FEF0E94AA1A8FEF0E94AA1A0E94AF1A05
:103890008A878F71853039F081E18D83CE010E9456
:1038A000B41A80E001C081E0DF91CF910895CF92FA
:1038B000DF92EF92FF920F931F93CF93DF93EC0170
:1038C0007A018B016901411551056105710511F4FA
:1038D00082E132C08B85833039F0A9E0EE0CFF1C09
:1038E000001F111FAA95D1F7CE0168E1A801970129
:1038F0000E94FE1A882311F084E01EC0CE016EEFF4
:10390000A6010E94251C8823C1F0CE0168E572E063
:103910000E94E31A882311F485E10EC0CE016DE008
:1039200020E030E0A9010E94FE1A882321F40E94C1
:10393000AF1A882379F084E18D83CE010E94B41AF6
:1039400080E0DF91CF911F910F91FF90EF90DF907A
:10395000CF900895CE010E94B41A81E0F2CF8091F9
:10396000CA0881608093CA0808950F931F930FEFD0
:103970001FEF2FEF3FE00E94B5251F910F91089593
:10398000CF93DF93EC019C012A5F3F4F8B8D9C8D81
:1039900041E050E060E070E00E945A268823A1F0E8
:1039A0008F89988DA98DBA8D0097A105B10571F405
:1039B0008E819F81A885B9858F8B988FA98FBA8FAB
:1039C0008C8180688C8302C080E001C081E0DF913F
:1039D000CF910895DF92EF92FF920F931F93CF93B1
:1039E000DF93EC010E94C01C882309F44EC0EB8DCC
:1039F000FC8DEE80FF80088519858EEF9FEFAFEF7D
:103A0000BFEFE80EF91E0A1F1B1F058404C0EE0C51
:103A1000FF1C001F111F0A94D2F786859785A08985
:103A2000B189E80EF91E0A1F1B1FD4800894E10813
:103A3000F108010911090BC0C801B7016D0D711D15
:103A4000811D911D0E94A1248823F9F0DA94DD20C4
:103A500099F7EB8DFC8D20E032E040E050E00584EA
:103A600004C0220F331F441F551F0A94D2F78B89BD
:103A70009C89AD89BE89820F931FA41FB51F8B8BB4
:103A80009C8BAD8BBE8B81E001C080E0DF91CF913C
:103A90001F910F91FF90EF90DF900895CF93DF93E8
:103AA000EC01462F8E859F85A889B989BC01CD017F
:103AB0000E946624882351F02A8930E085E0220F95
:103AC000331F8A95E1F72853394F02C020E030E0D8
:103AD000C901DF91CF910895DC01FB018BE090E2F9
:103AE00091938150E9F730E047E021C02E3241F454
:103AF0004A3029F138E04AE01AC0E21719F41FC031
:103B000084E092E0FC010196E491EE23B1F74317C3
:103B1000B0F02132A0F02F37A0F4FB01E30FF11D2C
:103B2000822F81568A3108F4205220833F5F2D91E5
:103B30002223E1F681E0FB019081903219F480E0CC
:103B4000089580E008952F923F924F925F926F9276
:103B50007F928F929F92AF92BF92CF92DF92EF921D
:103B6000FF920F931F93DF93CF9300D00F92CDB7A7
:103B7000DEB79C838B832A01DC0115968C91159707
:103B8000882309F4E7C014968C91149780FFE2C053
:103B9000FBC02C014C185D08A62EB72E3201EB811C
:103BA000FC813696FA83E983212C02E0302ECCC0CA
:103BB000AB81BC811A964D915D916D917C911D9761
:103BC0001FEF812E11E0912E842295221596EC9103
:103BD00015978A019B01F9E036952795179507956A
:103BE000FA95D1F75B968D919C915C97E23051F4F8
:103BF000FC01428D538D648D758D400F511F621FE6
:103C0000731F4EC0DC011496CC901497CA94C02246
:103C10008114910409F5CC20F9F441155105610591
:103C2000710559F4EB81FC818789908DA18DB28D4E
:103C300086839783A087B1870FC0AB81BC8116961E
:103C40004D915D916D917C91199729813A810E94E6
:103C5000C424882309F47EC0AB81BC815B96ED91BE
:103C6000FC915C9716964D915D916D917C911997A1
:103C70004250504060407040058404C0440F551FBE
:103C8000661F771F0A94D2F786859785A089B18928
:103C9000480F591F6A1F7B1F4C0D511D611D711D5F
:103CA000C1018819990963018615970508F46C010B
:103CB000EB81FC81848186FD06C0F0E0CF16F2E046
:103CC000DF0609F07BC080911D0390911E03A09137
:103CD0001F03B0912003481759076A077B0709F4AF
:103CE0006DC08091C8089091C90894018601750142
:103CF0000E94751B882371F1AC0CBD1C12C0C4015D
:103D00008853994F9C012C0D3D1DFC01D50102C02B
:103D100041914D932E173F07D9F7281B390BA20E5F
:103D2000B31E960140E050E0EB81FC8182859385D3
:103D3000A485B585820F931FA41FB51F8287938723
:103D4000A487B5876C187D086114710409F030CF21
:103D5000920102C02FEF3FEFC9010F900F900F901B
:103D60000F90CF91DF911F910F91FF90EF90DF9017
:103D7000CF90BF90AF909F908F907F906F905F900B
:103D80004F903F902F900895EB81FC818389948917
:103D9000A589B689C284D384E484F5844A01AA241F
:103DA000BB249C01AD012C193D094E095F09281562
:103DB00039054A055B0508F4ECCEEECECB01BA011D
:103DC00040E00E946624882309F099CFC3CFEF9288
:103DD000FF920F931F93CF93DF93EC018D8182307D
:103DE00040F1EA84FB840C851D85CE010E94651795
:103DF00097FD1FC08A859B85AC85BD854F96A11D0B
:103E0000B11D8A879B87AC87BD87D801C70125E094
:103E1000B695A795979587952A95D1F78F70282FF6
:103E200030E085E0220F331F8A95E1F72853394FA0
:103E300002C020E030E0C901DF91CF911F910F91C6
:103E4000FF90EF9008958F929F92AF92BF92CF9282
:103E5000DF92EF92FF920F931F93CF93DF93EC01CA
:103E60005A016B012D81222309F477C08B899C892B
:103E7000AD89BE8984179507A607B70708F46DC0FA
:103E80007AC0A114B104C104D10449F41E821F8276
:103E9000188619861A861B861C861D865CC04A8574
:103EA0005B856C857D85EB8DFC8D258530E0275FFE
:103EB0003F4FDB01CA010197A109B109022E04C0DD
:103EC000B695A795979587950A94D2F786017501BF
:103ED0000894E108F1080109110904C01695079535
:103EE000F794E7942A95D2F7E816F9060A071B0714
:103EF00028F0411551056105710549F48F89988DA8
:103F0000A98DBA8D8E839F83A887B98716C0E81ABA
:103F1000F90A0A0B1B0B11C04E815F8168857985F8
:103F20008B8D9C8D94010E94C4240894E108F108B3
:103F300001091109882331F410C036E0832E912C39
:103F40008C0E9D1EE114F1040105110529F7AA86C6
:103F5000BB86CC86DD8681E001C080E0DF91CF9119
:103F60001F910F91FF90EF90DF90CF90BF90AF9097
:103F70009F908F900895223009F083CFE8CFFC0105
:103F800043895489658976890E94231F08950F9378
:103F90001F93CF93DF938C01FC0185818823B1F1BE
:103FA000848187FF30C0C80161E00E944E1DEC0192
:103FB000009761F1F8018581823040F4838994890A
:103FC000A589B6898C8F9D8FAE8FBF8FF8018789A9
:103FD000908DA18DB28D9B8F8A8FBD8BAC8BE09124
:103FE000C606F091C706309751F0BE016A5E7F4F5A
:103FF000CE0148961995888D998D9B8B8A8BF801F7
:1040000084818F7784830E94292401C080E0DF911E
:10401000CF911F910F910895CF93DF93EC010E94F0
:10402000C71F882319F01D8281E001C080E0DF9165
:10403000CF9108954F925F926F927F928F929F924D
:10404000AF92BF92CF92DF92EF92FF920F931F93A6
:10405000DF93CF9300D00F92CDB7DEB78C014A012A
:104060005B01FC018581813009F084C0848181FF7E
:1040700081C096C00097A105B10509F479C0F80187
:104080004284538464847584C801B501A4010E94EC
:10409000231F882309F46EC0F801838D948D811449
:1040A0009104A104B10479F44789508D618D728D1A
:1040B0000E946C27882309F45DC0F801178A108ECE
:1040C000118E128E3BC0F801468157816085718543
:1040D0009E012F5F3F4F0E94C424882309F44AC0E9
:1040E000F801838D948D49815A816B817C81FC011B
:1040F0002789203139F4F8EFCF2EFFEFDF2EE12CA6
:10410000F12C08C0E8EFCE2EEFEFDE2EEFEFEE2E13
:10411000EFE0FE2E4C155D056E057F0578F40E94DC
:104120006C27882339F1F8014681578160857185B4
:10413000838D948D0E94B51C8823E1F0F801838A59
:10414000948AA58AB68A848180688483C8010E9483
:10415000C71F882379F0B501A401481459046A04E3
:104160007B0410F4B301A201C8010E94231F03C005
:1041700081E001C080E00F900F900F900F90CF91E1
:10418000DF911F910F91FF90EF90DF90CF90BF9044
:10419000AF909F908F907F906F905F904F90089519
:1041A000F80183899489A589B68984179507A6079C
:1041B000B70708F05FCFDECF1F93CF93DF93EC01FB
:1041C000142FE62FF0E0DF0145E0AA0FBB1F4A9550
:1041D000E1F7A853B94F1B968C911B97817121F081
:1041E000812F827409F05DC06A8B80911D039091CC
:1041F0001E03A0911F03B09120038E879F87A88B79
:10420000B98B35E0EE0FFF1F3A95E1F7E853F94F10
:1042100084899589A0E0B0E0DC01992788278F8BFD
:10422000988FA98FBA8F428D538D60E070E0482B34
:10423000592B6A2B7B2B4F8B588F698F7A8F8385F5
:1042400090E088719070009751F4848D958DA68DC3
:10425000B78D8B8B9C8BAD8BBE8B81E00DC080317D
:104260009105F9F49E012D5E3F4F8B8D9C8D0E9430
:1042700044258823B1F084E08D83812F8F708C8357
:104280001E821F82188619861A861B861C861D862A
:1042900016FF09C0CE0140E050E0BA010E941A208A
:1042A00003C080E001C081E0DF91CF911F910895AC
:1042B0006F927F928F929F92AF92BF92CF92DF9236
:1042C000EF92FF920F931F93DF93CF93CDB7DEB79B
:1042D0002B970FB6F894DEBF0FBECDBF7C018B01CC
:1042E000CA01D22ED70115962C911597222309F0D9
:1042F000D5C05E010894A11CB11CB5010E946C1DC3
:10430000882309F4CBC0F801838D948DD7015C9686
:104310009C938E935B971682178210861186D80124
:104320001A961D921D921D921C921D97CC247A2CD8
:104330006B2C3FC0C8010E94E71EBC01009709F426
:10434000ADC035E0B694A794979487943A95D1F789
:10435000BFE08B22FC018081882311F0853EC9F4E7
:10436000CC2081F4D70152968C9280911D039091BC
:104370001E03A0911F03B0912003F7018687978742
:10438000A08BB18BDB018C91882319F1CC24C394D1
:1043900010C0872D962D4BE050E00E94572A0097C1
:1043A00041F48D2D8073803309F478C0C701682DE6
:1043B00071C0F80182849384A484B584838994892C
:1043C000A589B68988169906AA06BB0608F4B2CF55
:1043D00002C0CC24C3948D2D8271823109F05EC05D
:1043E000CC2041F0C70161E00E944E1D8C01009776
:1043F00091F454C0D80115968C911597823009F428
:104400004DC0C8010E94EA1C882309F447C0F70187
:10441000128A08EC16E080E2D8011D928A95E9F72D
:10442000D801FE0131968BE001900D928150E1F7A9
:10443000E091C606F091C706309739F0B801625F87
:104440007F4FC8014096199509C081E298E2F801B2
:10445000918B808B80E098E097878687D801509673
:104460008D919C91519753969C938E935297599608
:104470009C938E9358971E968D919C911F9757965B
:104480009C938E9356970E942924882339F0C70164
:10449000F70162894D2D0E94DC2001C080E02B963F
:1044A0000FB6F894DEBF0FBECDBFCF91DF911F9145
:1044B0000F91FF90EF90DF90CF90BF90AF909F90C3
:1044C0008F907F906F9008952F923F924F925F92BE
:1044D0006F927F928F929F92AF92BF92CF92DF9214
:1044E000EF92FF920F931F93DF93CF93CDB7DEB779
:1044F00028970FB6F894DEBF0FBECDBF8C015E8348
:104500004D83DC0115968C911597813009F069C1B6
:1045100014968C91149781FF64C187C1F80122859C
:1045200033854485558583899489A589B68928175B
:1045300039074A075B0751F0C8016F8378870E94EB
:10454000BF1F6F817885882309F44BC1A62EB72E33
:104550002D803E8035010DC1D8015B968D919C91D7
:104560005C9769017A0159E0F694E794D794C7946F
:104570005A95D1F7FC01A480AA94AC204FEF842E69
:1045800041E0942E82229322AA2009F046C0811491
:10459000910409F042C016964D915D916D917C9108
:1045A0001997411551056105710559F457968D917B
:1045B0009D910D90BC91A02D0097A105B10541F5ED
:1045C00021C09E012F5F3F4F0E94C424882309F41D
:1045D0000FC189819A81AB81BC81F801238D348D13
:1045E000F9012789203129F428EF3FEF40E050E01E
:1045F00004C028EF3FEF4FEF5FE082179307A40757
:10460000B50730F0C8010E94C01C882331F4E9C00E
:10461000F80186839783A087B18780E092E08819AC
:10462000990921018215930508F42C01D8015B96A4
:10463000ED91FC915C971696CD90DD90ED90FC90FD
:1046400019978EEF9FEFAFEFBFEFC80ED91EEA1E8E
:10465000FB1E058404C0CC0CDD1CEE1CFF1C0A9460
:10466000D2F786859785A089B189C80ED91EEA1E22
:10467000FB1ECA0CD11CE11CF11C90E0491692E013
:10468000590651F580911D0390911E03A0911F03BF
:10469000B09120038C159D05AE05BF0561F48FEF29
:1046A0009FEFAFEFBFEF80931D0390931E03A09386
:1046B0001F03B09320038091C8089091C908B701E7
:1046C000A60193010E94571C882309F48AC0A0E028
:1046D000B2E06A0E7B1E3BC081149104F1F4F80134
:1046E000228533854485558583899489A589B68932
:1046F000281739074A075B0780F00E94292488237E
:1047000009F46FC0C0921D03D0921E03E0921F03F4
:10471000F09220030E94AF1C08C0C701B60141E01F
:104720000E946624882309F45CC0C4018853994F11
:104730009C01240D351DD301FC0102C04D91419314
:10474000E217F307D9F7E81BF90B6E0E7F1E24184A
:104750003508920140E050E0F80182859385A485F8
:10476000B585820F931FA41FB51F82879387A487E7
:10477000B587D8011A962D913D914D915C911D9769
:104780002114310409F0E8CEF80183899489A589C0
:10479000B68982179307A407B50740F4D80153964A
:1047A0002D933D934D935C9356970BC08091C60615
:1047B0009091C706009761F0ED81FE81309741F03E
:1047C000D80114968C911497806814968C93149742
:1047D000F801848183FF0EC0C8010E94C71F88238F
:1047E00049F481E090E0D80113969C938E93129740
:1047F0001E821D828D819E8128960FB6F894DEBFA1
:104800000FBECDBFCF91DF911F910F91FF90EF9021
:10481000DF90CF90BF90AF909F908F907F906F90E0
:104820005F904F903F902F90089582FD77CE8ECE6F
:10483000DF93CF930F92CDB7DEB76983BE016F5F71
:104840007F4F41E050E00E9464220F90CF91DF91B2
:1048500008958091CA08882399F140911D035091D1
:104860001E0360911F03709120038091C8089091EE
:10487000C90828EC36E00E94571C882319F14091A2
:10488000CB085091CC086091CD087091CE084115AD
:1048900051056105710591F08091C8089091C90892
:1048A00028EC36E00E94571C882371F01092CB0848
:1048B0001092CC081092CD081092CE081092CA081F
:1048C00081E0089580E0089580E00895DF92EF92FE
:1048D000FF920F931F937B018C01D42E80911D03B7
:1048E00090911E03A0911F03B09120038E159F0588
:1048F000A007B107C1F00E9429248823D9F0809134
:10490000C8089091C908B801A70128EC36E00E94B8
:10491000151C882379F0E0921D03F0921E0300938A
:104920001F03109320038091CA088D298093CA0821
:1049300081E001C080E01F910F91FF90EF90DF9028
:104940000895EF92FF920F931F937B018C010E94B9
:104950002924882399F0E8ECF6E0119288E0E83CFD
:10496000F807D9F7E0921D03F0921E0300931F038E
:10497000109320030E94AF1C81E001C080E01F91D2
:104980000F91FF90EF900895CF92DF92EF92FF92F8
:104990000F931F93CF93DF93EC017A018B01690191
:1049A00089859A85AB85BC850196A11DB11D8417AB
:1049B0009507A607B70708F45DC02B893C894D8988
:1049C0005E898F89803129F4BB27A12F902F8F2DED
:1049D00009C0D801C70167E0B695A7959795879557
:1049E0006A95D1F7BC01CD01620F731F841F951F1B
:1049F00020911D0330911E0340911F03509120030D
:104A0000621773078407950729F040E00E94662427
:104A1000882381F18F89803191F48FEF90E0A0E0BD
:104A2000B0E0E822F9220A231B23F701EE0FFF1F53
:104A3000E853F94F80819181A0E0B0E014C08FE786
:104A400090E0A0E0B0E0E822F9220A231B23F7015E
:104A5000EE0FFF1FEE0FFF1FE853F94F808191818A
:104A6000A281B381BF70F60180839183A283B38357
:104A700081E001C080E0DF91CF911F910F91FF9005
:104A8000EF90DF90CF9008954F925F926F927F9258
:104A90008F929F92AF92BF92CF92DF92EF92FF924E
:104AA0000F931F93DF93CF9300D00F92CDB7DEB754
:104AB0006C0149835A836B837C832901EE24FF2494
:104AC00087015E010894A11CB11C612CE2E07E2EDE
:104AD000812C912C49815A816B817C81C601950181
:104AE0000E94C424882359F1D401C301F60105842E
:104AF00004C0880F991FAA1FBB1F0A94D2F7E80EA3
:104B0000F91E0A1F1B1F29813A814B815C8187890D
:104B1000803129F488EF9FEFA0E0B0E004C088EF77
:104B20009FEFAFEFBFE0281739074A075B0790F206
:104B3000F201E082F1820283138381E001C080E010
:104B40000F900F900F900F90CF91DF911F910F91C9
:104B5000FF90EF90DF90CF90BF90AF909F908F909D
:104B60007F906F905F904F9008954F925F926F92F9
:104B70007F928F929F92AF92BF92CF92DF92EF92ED
:104B8000FF920F931F93CF93DF93EC016A017B0198
:104B900028013901423051056105710508F476C0DC
:104BA00089859A85AB85BC850196A11DB11D8417A9
:104BB0009507A607B70708F469C08B899C89AD895A
:104BC000BE892F89203129F4852E962EA72EBB244D
:104BD00009C04A015B0117E0B694A79497948794A3
:104BE0001A95D1F7880E991EAA1EBB1E80911D032F
:104BF00090911E03A0911F03B0912003881699067F
:104C0000AA06BB0639F0C501B40140E00E94662443
:104C10008823E1F18F89803181F48FEF90E0A0E06B
:104C2000B0E0C822D922EA22FB22F601EE0FFF1FD4
:104C3000E853F94F5182408213C08FE790E0A0E023
:104C4000B0E0C822D922EA22FB22F601EE0FFF1FB4
:104C5000EE0FFF1FE853F94F408251826282738248
:104C60000E94AF1C8A89823098F08D819E81AF812D
:104C7000B885880D991DAA1DBB1D8093CB08909304
:104C8000CC08A093CD08B093CE0802C080E001C04C
:104C900081E0DF91CF911F910F91FF90EF90DF9016
:104CA000CF90BF90AF909F908F907F906F905F90CC
:104CB0004F9008952F923F924F925F926F927F9202
:104CC0008F929F92AF92BF92CF92DF92EF92FF921C
:104CD0000F931F93DF93CF93CDB7DEB72F970FB608
:104CE000F894DEBF0FBECDBF1C014C875D876E8779
:104CF0007F873B872A87D9014D905D906D907C908E
:104D00001397411451046104710431F00894411C5B
:104D1000511C611C711C10C0FC01408051806280DC
:104D20007380F1E0FD832C853D854E855F852130C4
:104D300031054105510509F01D82D1011996CD902B
:104D4000DD90ED90FC901C970894C11CD11CE11CD7
:104D5000F11C530142011E821F82188619868E01A2
:104D60000F5F1F4FF10181859285A385B4852E8148
:104D70003F8148855985281739074A075B0708F09E
:104D80008FC0C814D904EA04FB0450F492E0892EC1
:104D9000912CA12CB12C82E0482E512C612C712C2D
:104DA000C101B501A40198010E94C424882309F41B
:104DB00077C029813A814B815C81D501C40101967C
:104DC000A11DB11D211531054105510519F02C0119
:104DD0003D010DC084199509A609B7092C853D85AB
:104DE0004E855F8582179307A407B50789F08E81EA
:104DF0009F81A885B9850196A11DB11D8E839F83D2
:104E0000A887B9870894811C911CA11CB11CAACF4A
:104E1000C101A401B5010E94B51C882391F440C0D2
:104E2000680179010894C108D108E108F108C101BD
:104E3000B701A6010E94B525882391F1970186014B
:104E400002C095018401401651066206730640F3C4
:104E5000AA85BB854D915D916D917C91139741150C
:104E600051056105710539F0C101930182010E946C
:104E7000B5258823A9F0EA85FB85408251826282AC
:104E80007382FD81FF2371F00894411C511C611C49
:104E9000711CD1014D925D926D927C92139702C06C
:104EA00080E001C081E02F960FB6F894DEBF0FBE00
:104EB000CDBFCF91DF911F910F91FF90EF90DF90C9
:104EC000CF90BF90AF909F908F907F906F905F90AA
:104ED0004F903F902F900895AF92BF92CF92DF9264
:104EE000EF92FF920F931F93DF93CF9300D00F9217
:104EF000CDB7DEB76C017A018B0182E090E0A0E0D3
:104F0000B0E0F60180839183A283B3835E010894AD
:104F1000A11CB11CC601B801A70195010E94C424BF
:104F2000882311F1C601B801A70100E010E0980143
:104F30000E94B5258823C1F0E980FA800B811C818D
:104F4000F6018789803129F488EF9FEFA0E0B0E077
:104F500004C088EF9FEFAFEFBFE0E816F9060A073D
:104F60001B07C0F281E001C080E00F900F900F900E
:104F70000F90CF91DF911F910F91FF90EF90DF90F5
:104F8000CF90BF90AF900895CF93DF93823091057B
:104F900010F482E090E0E091D108F091D20840E076
:104FA00050E020E030E026C0608171816817790709
:104FB000E0F06817790781F482819381211531052A
:104FC00031F0D90113969C938E9312972BC0909336
:104FD000D2088093D10826C04115510519F06417F5
:104FE000750718F4AB01E901DF019F01728163814C
:104FF000E72FF62F3097C1F64115510501F1481BF7
:10500000590B4430510580F412968D919C91139761
:10501000209719F09B838A8304C09093D2088093D1
:10502000D108FD01329646C0FD01E40FF51F8193C2
:1050300091934250504011965C934E933BC0209107
:10504000CF083091D0082115310541F42091F202AA
:105050003091F3023093D0082093CF082091F402CE
:105060003091F5022115310541F42DB73EB740913D
:10507000F0025091F102241B350BE091CF08F09122
:10508000D008E217F307A0F42E1B3F0B28173907AF
:1050900078F0AC014E5F5F4F2417350748F04E0F94
:1050A0005F1F5093D0084093CF088193919302C023
:1050B000E0E0F0E0CF01DF91CF910895CF93DF934F
:1050C000009709F491C0FC0132971382128260911B
:1050D000D1087091D2086115710581F42081318168
:1050E000280F391F8091CF089091D008821793071D
:1050F00099F5F093D008E093CF0876C0DB0180E00B
:1051000090E002C0CD01D901AE17BF0748F4129656
:105110002D913C91139721153105A1F7CD0121C0A7
:10512000B383A283EF01499159919E01240F351F4A
:10513000A217B30779F42D913C911197240F351FD5
:105140002E5F3F4F3183208312962D913C91139710
:1051500033832283009729F4F093D208E093D10897
:1051600043C0DC011396FC93EE9312974D915D9131
:10517000A40FB51FEA17FB0769F420813181240FC2
:10518000351F2E5F3F4FEC01398328832281338105
:105190003B832A83E0E0F0E002C0FB01BC01DB01BD
:1051A00012968D919C9113970097B9F79B012E5FF2
:1051B0003F4F8D919C911197820F931F4091CF0883
:1051C0005091D0084817590779F4309729F4109274
:1051D000D2081092D10802C01382128222503040AD
:1051E0003093D0082093CF08DF91CF910895AF92EC
:1051F000BF92CF92DF92EF92FF920F931F93CF93C4
:10520000DF93EC01688179818A819B816115710549
:105210008105910521F464E279ED8BE597E02DE1BC
:1052200033EF41E050E00E94522B79018A0127EAD6
:1052300031E440E050E00E94EA2A5B016C01C801C1
:10524000B7012CEE34EF4FEF5FEF0E94EA2A6A0DB0
:105250007B1D8C1D9D1D97FF04C0615070408040D8
:105260009048688379838A839B837F77CB01DF9122
:10527000CF911F910F91FF90EF90DF90CF90BF9053
:10528000AF9008950E94F728089586EF92E00E945B
:10529000F7280895A0E0B0E08093F6029093F7021B
:1052A000A093F802B093F90208958F929F92AF9263
:1052B000BF92CF92DF92EF92FF920F931F93CF9303
:1052C000DF938C01CB010115110529F40E94C4273D
:1052D000082F192FB5C0D80112979801260F371F34
:1052E0002A173B0708F4AAC0ED90FC901197E61628
:1052F000F706D0F045E0E416F10408F4A1C0A701D8
:10530000445050404617570708F49AC0A70142502E
:105310005040461B570BF901419351936D937C9379
:10532000CF010E945E288CC05B01AE18BF08480107
:105330008E0C9F1CE091D108F091D208CC24DD2482
:10534000C0E0D0E041C0E815F90599F560817181B0
:10535000AB014E5F5F4F4A155B0558F1AB014A192F
:105360005B09CC24DD246894C1F8C40ED51E82806C
:10537000A380E5E0CE16D10448F0F9018282A38231
:105380005183408311969C938E9309C0C701029666
:10539000860F971F11969C938E93E82DFA2D2097D8
:1053A00019F0FB83EA834CC0F093D208E093D10854
:1053B00047C040815181C416D50608F46A01EF0147
:1053C00052814381E52FF42F309709F0BCCF4091F3
:1053D000CF085091D00848155905E9F4C816D906E8
:1053E000D0F44091F4025091F5024115510541F479
:1053F0004DB75EB76091F0027091F102461B570BFA
:1054000024173507D8F43093D0082093CF0811968D
:105410009C938E9315C00E94C427C82EE6016E018E
:10542000D92EE601209751F08C2DB801A7010E94DA
:10543000642AC8010E945E28860102C000E010E0D4
:10544000C801DF91CF911F910F91FF90EF90DF90F6
:10545000CF90BF90AF909F908F900895FC018827C8
:105460009927E89421912032E9F3293010F02E3069
:10547000C8F32B3241F02D3239F4689404C00E94F5
:10548000A82A820F911D219120532A30C0F31EF4C7
:10549000909581959F4F0895F8940C94712B9111DC
:1054A00096C0803219F089508550D0F70895FB01DD
:1054B000DC0104C08D910190801921F441505040CD
:1054C000C8F7881B990B0895FB01DC0102C001900D
:1054D0000D9241505040D8F70895FC0181918617F4
:1054E00021F08823D9F7992708953197CF0108959E
:1054F000FB01DC0101900D920020E1F70895FB0112
:10550000DC014150504048F001900D920020C9F755
:1055100001C01D9241505040E0F70895FB015191A8
:105520005523A9F0BF01DC014D9145174111E1F769
:1055300059F4CD010190002049F04D9140154111E1
:10554000C9F3FB014111EFCF81E090E0019708958D
:105550007AE0979F902D879F802D910D11240895BB
:10556000EF92FF920F931F93CF93DF938C01E09103
:10557000D508F091D608838181FF1FC0C0E0D0E03C
:105580000AC0DB011896ED91FC91199719950097C7
:1055900011F0CFEFDFEFF80181918F016091D50815
:1055A0007091D608882369F7DB011896ED91FC917C
:1055B00019978AE01995009711F0CFEFDFEFCE0130
:1055C000DF91CF911F910F91FF90EF900895992750
:1055D00088270895629FD001739FF001829FE00D9C
:1055E000F11D649FE00DF11D929FF00D839FF00D62
:1055F000749FF00D659FF00D9927729FB00DE11D0E
:10560000F91F639FB00DE11DF91FBD01CF011124EA
:105610000895AA1BBB1B51E107C0AA1FBB1FA617F9
:10562000B70710F0A61BB70B881F991F5A95A9F74B
:1056300080959095BC01CD01089597FB092E072612
:105640000AD077FD04D0E5DF06D000201AF470956B
:1056500061957F4F0895F6F7909581959F4F089536
:10566000A1E21A2EAA1BBB1BFD010DC0AA1FBB1F66
:10567000EE1FFF1FA217B307E407F50720F0A21BD8
:10568000B30BE40BF50B661F771F881F991F1A9445
:1056900069F760957095809590959B01AC01BD016F
:1056A000CF01089597FB092E05260ED057FD04D093
:1056B000D7DF0AD0001C38F45095409530952195DD
:1056C0003F4F4F4F5F4F0895F6F790958095709537
:1056D00061957F4F8F4F9F4F08950790F691E02D72
:1056E000199412E0CAE1D2E000E006C02297010955
:1056F000FE010BBF0E946D2BCC31D10780E0080763
:06570000A9F7F894FFCFA9
:1057060042454550202D200054494300544F430044
:1057160054494D45535F555000504F5745525F4FC2
:105726004E0043415445474F52595F4348414E4707
:10573600450053434F52455F4348414E474500534A
:10574600434F52455F52455345540057494E5F47B4
:10575600414D450053544F505F524F554E440045FE
:105766005849545F47414D455F444F4E455F53543A
:10577600415445004F4F5053212043414E2754205A
:10578600444953504C41593A2000666F726D61741A
:105796007465643A20002000202000436174636829
:1057A60020506872617365202D20506F77657220D6
:1057B6004F6E0063617463687068726173652E74FE
:1057C600787400426C6F6E6465732057696E2100B1
:1057D6004272756E65747465732057696E21004553
:1057E600766572797468696E6700002000002F0084
:1057F6002000D9080000010000000203121314075C
:105806000A0B0C0D0E0F983A0000F4010000F4018B
:1058160000002C010000C8000000040001FFFFFF8B
:10582600FF00000000EE0DA811920DC10DA50DE3BD
:105836000D00000000D315A811000040001400540C
:105846000000000000051748171B177E179B17401E
:0A58560017000000001824A811003C
:00000001FF
